:100000000C9434000C9451000C9451000C94510049
:100010000C9451000C9451000C9451000C9451001C
:100020000C9451000C9451000C9451000C9451000C
:100030000C9451000C9451000C9451000C945100FC
:100040000C9451000C9451000C9451000C945100EC
:100050000C9451000C9451000C9451000C945100DC
:100060000C9451000C94510011241FBECFEFD8E026
:10007000DEBFCDBF11E0A0E0B1E0E0E7F3E002C0F9
:1000800005900D92AE31B107D9F721E0AEE1B1E0B4
:1000900001C01D92AF31B207E1F70E946E000C94CF
:1000A000B6010C940000389839983A983B983C98DF
:1000B0003D9820982198229852985398269A279AEA
:1000C000409A419A429A439A449A459A289A299A80
:1000D0002A9A5A9A5B9A2E982F9808950E94530054
:1000E0000E9487000E9453000E94870020E031E0B8
:1000F0004EE050E061E070E08EE091E00E944B0144
:10010000219A309902C0299AFCCF2998FACF0E94EF
:100110000F0160E081E00E94EA0081E00E94090195
:1001200060E086E00E94EA0080E00E94090160E051
:100130008EE00E94EA0080E00E9409010895CF93BA
:10014000C82F80911E0181110EC0CB3121F481E0B6
:1001500080931E0116C080E00E94090161E08C2F8F
:100160000E94EA000EC080E00E94090160E08C2F2E
:100170000E94EA00C43018F481E00E940901109244
:100180001E0180E090E0CF9108955998662311F008
:10019000589A01C058982BB12F7030E1839FC0014D
:1001A0001124822B8BB95A9A5A980895599A9AB168
:1001B0009F709AB9882311F0589A01C058985A9A9A
:1001C000000089B15A989AB1906F9AB9599882955E
:1001D0008F700895CF93DF93C82FD62F82958F709D
:1001E0000E94C5006D2F8C2F8F700E94C500DF917B
:1001F000CF910895CF93DF93C82F0E94D600D82FB8
:10020000D295D07F8C2F0E94D6008D2BDF91CF917D
:10021000089580E00E94FA008823DCF30895509A44
:10022000519A529A8AB1806F8AB985EA9EE0019705
:10023000F1F700C0000060E083E00E94C50080E0AC
:1002400094E00197F1F700C0000060E083E00E94B5
:10025000C50091E29A95F1F7000060E083E00E940A
:10026000C5008CE08A95F1F7000060E082E00E9412
:10027000C50080E00E94090160E088E20E94EA0077
:1002800080E00E94090160E088E00E94EA0080E0CE
:100290000E9409010895A0E0B0E0E1E5F1E00C94CE
:1002A00085015B014A017901D90113962C9121FF47
:1002B0001DC0C0E0D0E0C815D905D9F08C016C0193
:1002C000CA0CDB1CC8010C151D0571F00F5F1F4F18
:1002D000D7011896ED91FC911997B701DC018C912B
:1002E0000995892B79F305C02196E5CF80E090E050
:1002F00001C0CE01CDB7DEB7ECE00C94A1012F9286
:100300003F924F925F926F927F928F929F92AF92A5
:10031000BF92CF92DF92EF92FF920F931F93CF93F2
:10032000DF93CDB7DEB7CA1BDB0B0FB6F894DEBF89
:100330000FBECDBF09942A88398848885F846E84AF
:100340007D848C849B84AA84B984C884DF80EE80F9
:10035000FD800C811B81AA81B981CE0FD11D0FB602
:10036000F894DEBF0FBECDBFED010895F894FFCF26
:1003700000000002000000009F0000000000204874
:0E038000656C6C201BC020576F726C6400000F
:00000001FF
