:100000000C9434000C9451000C9451000C94510049
:100010000C9451000C9451000C9451000C9451001C
:100020000C9451000C9451000C9451000C9451000C
:100030000C9451000C9451000C9451000C945100FC
:100040000C9451000C9451000C9451000C945100EC
:100050000C9451000C9451000C9451000C945100DC
:100060000C9451000C94510011241FBECFEFD8E026
:10007000DEBFCDBF11E0A0E0B1E0E8E4F3E002C0F4
:1000800005900D92A431B107D9F721E0A4E1B1E0C8
:1000900001C01D92AB31B207E1F70E946E000C94D3
:1000A000A2010C940000389839983A983B983C98F3
:1000B0003D9820982198229852985398269A279AEA
:1000C000409A419A429A439A449A459A289A299A80
:1000D0002A9A5A9A5B9A2E982F9808950E94530054
:1000E0000E94F900C5E1D1E000E011E0E02EF12E20
:1000F000EC82FD82980144E050E061E070E08EE027
:1001000091E00E9437012FE986E891E0215080407C
:100110009040E1F700C00000EBCF662311F0589A41
:1001200001C058982BB12F7030E1839FC00111247A
:10013000822B8BB9599A59980895CF93DF93C82F82
:10014000D62F82958F700E948D006D2F8C2F8F700F
:100150000E948D00DF91CF910895882339F08BE7BD
:1001600091E00197F1F700C0000008959CE09A9596
:10017000F1F700000895509A519A8AB1806F8AB9B8
:1001800085EA9EE00197F1F700C0000060E083E09F
:100190000E948D0080E094E00197F1F700C000001C
:1001A00060E083E00E948D0091E29A95F1F70000F3
:1001B00060E083E00E948D008CE08A95F1F70000FA
:1001C00060E082E00E948D009CE09A95F1F70000CB
:1001D00060E088E20E949D008CE08A95F1F70000C3
:1001E00060E088E00E949D009CE09A95F1F7000095
:1001F00008950E94BB0060E081E00E949D0081E0C4
:100200000E94AD0060E086E00E949D0080E00E94B8
:10021000AD0060E08EE00E949D0080E00E94AD0095
:100220000895CF93C82F8091140181110EC0CB3156
:1002300021F481E08093140116C080E00E94AD009B
:1002400061E08C2F0E949D000EC080E00E94AD00F6
:1002500060E08C2F0E949D00C43018F481E00E9461
:10026000AD001092140180E090E0CF910895A0E0DD
:10027000B0E0EDE3F1E00C9471015B014A0179011A
:10028000D90113962C9121FF1DC0C0E0D0E0C81504
:10029000D905D9F08C016C01CA0CDB1CC8010C1506
:1002A0001D0571F00F5F1F4FD7011896ED91FC915E
:1002B0001997B701DC018C910995892B79F305C059
:1002C0002196E5CF80E090E001C0CE01CDB7DEB74A
:1002D000ECE00C948D012F923F924F925F926F92BF
:1002E0007F928F929F92AF92BF92CF92DF92EF92C6
:1002F000FF920F931F93CF93DF93CDB7DEB7CA1B47
:10030000DB0B0FB6F894DEBF0FBECDBF09942A8871
:10031000398848885F846E847D848C849B84AA8419
:10032000B984C884DF80EE80FD800C811B81AA81A6
:10033000B981CE0FD11D0FB6F894DEBF0FBECDBF71
:08034000ED010895F894FFCFD0
:10034800000000020000000011010000000043202E
:040358001BC00000C6
:00000001FF
