:100000000C9434000C9451000C9451000C94510049
:100010000C9451000C9451000C9451000C9451001C
:100020000C9451000C9451000C9451000C9451000C
:100030000C9451000C9451000C9451000C945100FC
:100040000C9451000C9451000C9451000C945100EC
:100050000C9451000C9451000C9451000C945100DC
:100060000C9451000C94510011241FBECFEFD8E026
:10007000DEBFCDBF11E0A0E0B1E0EAEAF3E002C0EC
:1000800005900D92A033B107D9F721E0A0E3B1E0CC
:1000900001C01D92A633B207E1F70E945E000C94E6
:1000A000D3010C940000389839983A983B983C98C2
:1000B000409A419A429A439A449A08950E94530062
:1000C0000E945001C0E3D1E0309914C02FE986E8C6
:1000D00091E0215080409040E1F700C000002C8169
:1000E0003D814BE050E061E070E080E091E00E94F3
:1000F0006801EACF319914C02FE986E891E02150D8
:1001000080409040E1F700C000002C813D814BE031
:1001100050E061E070E08CE091E00E946801D4CF93
:10012000329914C02FE986E891E021508040904038
:10013000E1F700C000002C813D814BE050E061E020
:1001400070E088E191E00E946801BECF339914C04D
:100150002FE986E891E0215080409040E1F700C00F
:1001600000002C813D814BE050E061E070E084E2D2
:1001700091E00E946801A8CF3499A6CF2FE986E8C4
:1001800091E0215080409040E1F700C000000E94C3
:1001900050019ACF5998662311F0589A01C0589887
:1001A0002BB12F7030E1839FC0011124822B8BB9BA
:1001B0005A9A5A980895599A9AB19F709AB9882371
:1001C00011F0589A01C058985A9A000089B15A986B
:1001D0009AB1906F9AB9599882958F700895CF937C
:1001E000DF93C82FD62F82958F700E94CA006D2F83
:1001F0008C2F8F700E94CA00DF91CF910895CF930A
:10020000DF93C82F0E94DB00D82FD295D07F8C2F90
:100210000E94DB008D2BDF91CF91089580E00E943A
:10022000FF008823DCF30895509A519A529A8AB1BC
:10023000806F8AB985EA9EE00197F1F700C000005F
:1002400060E083E00E94CA0080E094E00197F1F74B
:1002500000C0000060E083E00E94CA0091E29A952D
:10026000F1F7000060E083E00E94CA008CE08A950C
:10027000F1F7000060E082E00E94CA0080E00E9486
:100280000E0160E088E20E94EF0080E00E940E0113
:1002900060E088E00E94EF0080E00E940E01089577
:1002A0000E94140160E081E00E94EF0081E00E9462
:1002B0000E0160E086E00E94EF0080E00E940E01E7
:1002C00060E08EE00E94EF0080E00E940E01089541
:1002D000A0E0B0E0EEE6F1E00C94A2015B014A017F
:1002E0007901D90113962C9121FF1DC0C0E0D0E007
:1002F000C815D905D9F08C016C01CA0CDB1CC801EA
:100300000C151D0571F00F5F1F4FD7011896ED9169
:10031000FC911997B701DC018C910995892B79F330
:1003200005C02196E5CF80E090E001C0CE01CDB7B9
:10033000DEB7ECE00C94BE012F923F924F925F9299
:100340006F927F928F929F92AF92BF92CF92DF92E5
:10035000EF92FF920F931F93CF93DF93CDB7DEB74A
:10036000CA1BDB0B0FB6F894DEBF0FBECDBF0994DE
:100370002A88398848885F846E847D848C849B8435
:10038000AA84B984C884DF80EE80FD800C811B8143
:10039000AA81B981CE0FD11D0FB6F894DEBF0FBE72
:0A03A000CDBFED010895F894FFCFE2
:1003AA0043201BC0202020202020310043201BC0D6
:1003BA00202020202020320043201BC02020202083
:1003CA002020330043201BC020202020202034007E
:00000001FF
